:100000000C9489000C94B1000C94B1000C94B100D4
:100010000C94B1000C94B1000C94B1000C94B1009C
:100020000C94B1000C94B1000C94B1000C94B1008C
:100030000C94B1000C94B1000C94B1000C94B1007C
:100040000C9433050C94B1000C94A3050C947D051D
:100050000C94B1000C94B1000C94B1000C94B1005C
:100060000C94B1000C94B1004448543131207465B3
:1000700073742100C2B043200025202054656D70A8
:10008000657261747572653A200048756D696469BE
:1000900074793A20004661696C656420746F20723F
:1000A0006561642066726F6D204448542073656EEC
:1000B000736F72210000000000240027002A000056
:1000C000000000250028002B0000000008000201AD
:1000D0000000030407000000000000000000000012
:1000E000002300260029000404040404040404027C
:1000F00002020202020303030303030102040810C5
:100100002040800102040810200102040810200091
:10011000D50511241FBECFEFD8E0DEBFCDBF11E063
:10012000A0E0B1E0EEE3F4E102C005900D92A2324E
:10013000B107D9F721E0A2E2B1E001C01D92AB3DC9
:10014000B207E1F710E0C9E8D0E004C02197FE0152
:100150000E94170AC838D107C9F70E9422060C94DA
:100160001D0A0C940000CF92DF92EF92FF92CF9382
:10017000DF93B091CF01A0E08111AB2F8091D0012E
:1001800090E0880F991FAC0143525F4FC090D5019A
:10019000D090D601E090D701F090D80130E020E077
:1001A000FA01C591D491E881B90190E080E0EB2398
:1001B000EA130AC02F5F3F4F6C157D058E059F0522
:1001C00078F36FEF7FEFCB01DF91CF91FF90EF904E
:1001D000DF90CF900895CF93DF9390E0FC01E5503E
:1001E000FF4F249189519F4FFC0184918823D1F0C6
:1001F00090E0880F991FFC01EB54FF4FA591B4913B
:10020000FC01E154FF4FC591D491623071F49FB766
:10021000F8943C91822F809583238C93E8812E2B38
:1002200028839FBFDF91CF9108958FB7F894EC9109
:100230002E2B2C938FBFF6CF3FB7F89480912301DC
:1002400090912401A0912501B091260126B5A89B8B
:1002500005C02F3F19F00196A11DB11D3FBFBA2F58
:10026000A92F982F8827BC01CD01620F711D811D18
:10027000911D42E0660F771F881F991F4A95D1F79D
:1002800008958F929F92AF92BF92CF92DF92EF929A
:10029000FF924B015C010E941C016B017C010E94DA
:1002A0001C016C197D098E099F09683E7340810508
:1002B0009105A8F321E0821A9108A108B10888EEFF
:1002C000C80E83E0D81EE11CF11C81149104A10426
:1002D000B10429F7FF90EF90DF90CF90BF90AF90DF
:1002E0009F908F9008958F929F92AF92BF92EF92BE
:1002F000FF920F931F93CF93DF93CDB7DEB7C05418
:10030000D1400FB6F894DEBF0FBECDBF2FB7F89423
:100310008091270190912801A0912901B0912A0193
:100320002FBF4091D1015091D2016091D3017091C2
:10033000D4018C019D01041B150B260B370BB90151
:10034000A801403D574061057105A0F48091D90195
:10035000C05CDE4F0FB6F894DEBF0FBECDBFDF919D
:10036000CF911F910F91FF90EF90BF90AF909F9012
:100370008F9008958093D1019093D201A093D301DF
:10038000B093D4011092CC011092CB011092CA010B
:100390001092C9011092C80162E08091CD010E94C3
:1003A000EB0061E070E080E090E00E94410161E0DC
:1003B0008091CD010E94EB008091CD0190E0FC0185
:1003C000E753FF4F2491FC01E550FF4F3491FC01AE
:1003D000E951FF4FE491EE23D9F0222359F0233065
:1003E00009F44BC008F03EC0213009F44CC0223063
:1003F00009F44DC0F0E0EE0FFF1FE154FF4FA5914F
:10040000B4918FB7F894EC9130953E233C938FBF15
:100410008091CE018551823008F046C08BE291E197
:100420000197F1F762E08091CD010E94EB0080918D
:10043000DA0190E08230910538F0880F991F880F1B
:10044000991F05970197F1F7F89480E00E94B30097
:100450006F3F7F4F8F4F9F4F71F51092D901789466
:1004600080E076CF2730B1F02830D1F0243009F089
:10047000C1CF809180008F7D03C0809180008F77F5
:1004800080938000B7CF84B58F7784BDB3CF84B518
:100490008F7DFBCF8091B0008F778093B000AACF83
:1004A0008091B0008F7DF9CF64E170E080E090E052
:1004B0000E944101B7CF81E00E94B3006F3F7F4FA0
:1004C0008F4F9F4F51F2CE0101967C015E019FEB51
:1004D000A91A9EEFB90A870180E00E94B300F801D3
:1004E000608371838283938381E00E94B300F8016B
:1004F0006483758386839783085F1F4FA016B106B8
:1005000059F7789430E020E0F70180809180A28054
:10051000B3804481558166817781FFEF8F169F06F6
:10052000AF06BF0631F04F3F0FEF5007600770076F
:1005300019F41092D90194CFF90183E0F595E7956C
:100540008A95E1F7E853FE4F8081880F841695065F
:10055000A606B70618F180832F5F3F4F18E0E10E23
:10056000F11C2832310581F64091CC012091C8015F
:100570008091C901280F3327331F8091CA01280FAA
:10058000311D8091CB01820F932F911D9927481720
:10059000190679F681E08093D901DACE8160DBCF4C
:1005A000AF92BF92CF92DF92EF92FF920F931F9381
:1005B000CF93DF936C017B018B01040F151FEB01BF
:1005C0005E01AE18BF08C017D10759F06991D60176
:1005D000ED91FC910190F081E02DC6010995892BE8
:1005E00079F7C501DF91CF911F910F91FF90EF90A7
:1005F000DF90CF90BF90AF900895FC01538D448D54
:10060000252F30E0842F90E0821B930B541710F0BD
:10061000CF96089501970895FC01918D828D9817CA
:1006200061F0A28DAE0FBF2FB11D5D968C91928DA2
:100630009F5F9F73928F90E008958FEF9FEF0895D3
:10064000FC01918D828D981731F0828DE80FF11D9C
:10065000858D90E008958FEF9FEF0895FC01918DB7
:10066000228D892F90E0805C9F4F821B91098F73B0
:10067000992708958BE291E00E942E0321E0892BB7
:1006800009F420E0822F089580E090E0892B29F082
:100690000E943A0381110C9400000895FC01A48D7E
:1006A000A80FB92FB11DA35ABF4F2C91848D90E094
:1006B00001968F739927848FA689B7892C93A08977
:1006C000B1898C91837080648C93938D848D981301
:1006D00006C00288F389E02D80818F7D8083089594
:1006E000EF92FF920F931F93CF93DF93EC0181E082
:1006F000888F9B8D8C8D98131AC0E889F989808129
:1007000085FF15C09FB7F894EE89FF896083E8895B
:10071000F98980818370806480839FBF81E090E04D
:10072000DF91CF911F910F91FF90EF900895F62EDA
:100730000B8D10E00F5F1F4F0F731127E02E8C8D74
:100740008E110CC00FB607FCFACFE889F9898081B9
:1007500085FFF5CFCE010E944E03F1CFEB8DEC0F5C
:10076000FD2FF11DE35AFF4FF0829FB7F8940B8FD6
:10077000EA89FB8980818062CFCF0F931F93CF934B
:10078000DF938C01D0E0C0E0F801EC0FFD1F649115
:10079000662341F08BE291E00E947003892B11F0F7
:1007A0002196F2CFCE01DF91CF911F910F91089545
:1007B000CF93DF93EC01888D8823B9F0AA89BB8998
:1007C000E889F9898C9185FD03C0808186FD0DC083
:1007D0000FB607FCF7CF8C9185FFF2CF808185FFA4
:1007E000EDCFCE010E944E03E9CFDF91CF91089566
:1007F000FC0101900020E9F73197AF01481B590B2C
:10080000BC018BE291E00C94D002CF93DF930E9465
:10081000BD03EC0182E191E00E94F8038C0F9D1F63
:10082000DF91CF9108958F929F92AF92BF920F93D5
:100830001F93CF93DF93CDB7DEB7A1970FB6F89490
:10084000DEBF0FBECDBF19A2423008F44AE08E01D0
:100850000F5D1F4F842E912CB12CA12CA50194016A
:100860000E94F509E62FB901CA01EA30F4F4E05D0F
:10087000D801EE938D01232B242B252B79F790E0C3
:1008800080E0109719F0CD010E94F803A1960FB6F1
:10089000F894DEBF0FBECDBFDF91CF911F910F91B6
:1008A000BF90AF909F908F900895E95CE1CF4F92F9
:1008B0005F926F927F928F929F92AF92BF92CF92F0
:1008C000DF92EF92FF920F931F93CF936B017C0106
:1008D000742EAC019B010E94F009882399F085E1F8
:1008E00091E0CF911F910F91FF90EF90DF90CF900B
:1008F000BF90AF909F908F907F906F905F904F9040
:100900000C94F80346015701E894B7F82FEF3FEF36
:100910004FE75FE7C501B4010E94F00981110DC0E6
:100920002FEF3FEF4FE75FE7C501B4010E942608B4
:1009300018161CF489E191E0D4CF2FEF3FEF4FE779
:100940005FE4C701B6010E947E0918161CF48DE110
:1009500091E0C7CF2FEF3FEF4FE75FECC701B60144
:100960000E94260887FDF3CF20E030E0A901C701EF
:10097000B6010E94260810E000E087FF0AC06DE281
:100980008BE291E00E9470038C01F7FAF094F7F883
:10099000F094C0E060E070E080E09FE37C1641F0FE
:1009A00020E030E040E251E40E942B08CF5FF6CF18
:1009B000A70196010E94BA072B013C010E949D08E5
:1009C0004B015C014AE00E9413047C01E00EF11E21
:1009D000CC23C1F1C501B4010E94CC089B01AC013C
:1009E000C301B2010E94B9074B015C016EE28BE2C8
:1009F00091E00E947003E80EF91EC15018F120E04A
:100A000030E040E251E4C501B4010E9483092B01AA
:100A10003C010E949D084B01B12CA12C4AE0C5016C
:100A2000B4010E941304E80EF91EC501B4010E942E
:100A3000CC089B01AC01C301B2010E94B9074B0174
:100A40005C01DBCFC701CF911F910F91FF90EF9019
:100A5000DF90CF90BF90AF909F908F907F906F90DE
:100A60005F904F9008951F920F920FB60F9211242E
:100A70002F933F938F939F93AF93BF9380912701C1
:100A800090912801A0912901B0912A013091220171
:100A900023E0230F2D3758F50196A11DB11D20939A
:100AA00022018093270190932801A0932901B093FC
:100AB0002A018091230190912401A0912501B091F8
:100AC00026010196A11DB11D80932301909324015D
:100AD000A0932501B0932601BF91AF919F918F9173
:100AE0003F912F910F900FBE0F901F90189526E801
:100AF000230F0296A11DB11DD2CF1F920F920FB6E8
:100B00000F9211242F933F934F935F936F937F9393
:100B10008F939F93AF93BF93EF93FF938BE291E0FB
:100B20000E944E03FF91EF91BF91AF919F918F91E2
:100B30007F916F915F914F913F912F910F900FBED9
:100B40000F901F9018951F920F920FB60F921124BD
:100B50002F938F939F93EF93FF93E0913B01F0913D
:100B60003C018081E0914101F091420182FD1BC076
:100B70009081809144018F5F8F732091450182178E
:100B800041F0E0914401F0E0E55DFE4F958F8093E8
:100B90004401FF91EF919F918F912F910F900FBE84
:100BA0000F901F9018958081F4CFEBE2F1E0138253
:100BB000128288EE93E0A0E0B0E084839583A68360
:100BC000B78384E091E09183808385EC90E0958702
:100BD000848784EC90E09787868780EC90E0918B07
:100BE000808B81EC90E0938B828B82EC90E0958BF4
:100BF000848B86EC90E0978B868B118E128E138EF1
:100C0000148EA8ECB1E082E015968C9315978BE0DA
:100C100016968C931697EDEFF0E0E4911796EC930F
:100C20001797E9EEF0E0E4911896EC93189740E8F6
:100C30005EE360E070E01D964D935D936D937C9351
:100C400050970895789484B5826084BD84B581609E
:100C500084BD85B5826085BD85B5816085BD809187
:100C60006E00816080936E001092810080918100FF
:100C700082608093810080918100816080938100F7
:100C8000809180008160809380008091B1008460B9
:100C90008093B1008091B00081608093B00080911A
:100CA0007A00846080937A0080917A0082608093D9
:100CB0007A0080917A00816080937A0080917A0036
:100CC000806880937A001092C100E0913B01F0911E
:100CD0003C0182E08083E0913701F091380110827D
:100CE000E0913901F0913A018FEC80831092430139
:100CF000E0913F01F091400186E08083E0913D0169
:100D0000F0913E01808180618083E0913D01F0910E
:100D10003E01808188608083E0913D01F0913E0139
:100D2000808180688083E0913D01F0913E01808167
:100D30008F7D808388E690E00E94050462E08091C8
:100D4000CD010E94EB002FB7F8948091270190917C
:100D50002801A0912901B0912A012FBF805D974001
:100D6000A109B1098093D1019093D201A093D3013D
:100D7000B093D40187E38093DA01C0E0D0E060ED66
:100D800077E080E090E00E9441010E947301882397
:100D900049F08091CE018B3028F08D3050F0855194
:100DA0008230C8F1812C912C20ECA22E2FE7B22E9C
:100DB0001EC06091C90170E090E080E00E94CE0802
:100DC0002DEC3CEC4CEC5DE30E9483096B017C0153
:100DD0006091C80170E090E080E00E94CE089B0125
:100DE000AC01C701B6010E94BA074B015C010E9429
:100DF0007301882309F474C08091CE018C3009F40A
:100E00007EC0D8F48B3091F1C12CD12C80ECE82E2F
:100E10008FE7F82E55C06091C8017091C9017627FF
:100E20006727762790E080E00E94CC082DEC3CEC10
:100E30004CEC5DE30E948309D8CF8551823020F7C6
:100E40001091CA01612F70E0762F662766277F77A1
:100E50008091CB01682B90E080E00E94CC082DECC3
:100E60003CEC4CEC5DE30E94830965C06091CA01D3
:100E700070E090E080E00E94CC086B017C01109152
:100E8000CB0117FF0AC0AC019B0160E070E080E875
:100E90009FEB0E94B9076B017C011F70612F70E00E
:100EA00090E080E00E94CE082DEC3CEC4CEC5DE341
:100EB0000E948309A70196010E94BA076B017C0179
:100EC000A5019401C501B4010E94F009811108C077
:100ED000A7019601C701B6010E94F0098823A1F17C
:100EE00085E990E00E940504209709F448CF0E940C
:100EF0003A03882309F443CF0E94000040CF1091A9
:100F0000CA01612F70E090E080E00E94CC086B0184
:100F10007C016091CB016F7070E090E080E00E94F6
:100F2000CE082DEC3CEC4CEC5DE30E948309A7015C
:100F300096010E94BA076B017C0117FFC1CFF7FA37
:100F4000F094F7F8F094BCCF8AE890E00E94BD03DB
:100F500042E0C501B4010E94570489E790E00E9475
:100F6000BD0342E0C701B6010E94570484E790E048
:100F7000B9CF5058BB27AA270E94D1070C94440927
:100F80000E94360938F00E943D0920F039F49F3F55
:100F900019F426F40C9433090EF4E095E7FB0C9455
:100FA0002D09E92F0E94550958F3BA1762077307F4
:100FB0008407950720F079F4A6F50C9477090EF4D0
:100FC000E0950B2EBA2FA02D0B01B90190010C0159
:100FD000CA01A0011124FF27591B99F0593F50F471
:100FE000503E68F11A16F040A22F232F342F4427C9
:100FF000585FF3CF469537952795A795F0405395C1
:10100000C9F77EF41F16BA0B620B730B840BBAF090
:101010009150A1F0FF0FBB1F661F771F881FC2F7FB
:101020000EC0BA0F621F731F841F48F4879577950F
:101030006795B795F7959E3F08F0B0CF9395880FC9
:1010400008F09927EE0F9795879508950E94090952
:1010500008F481E008950E943F080C9444090E941E
:101060003D0958F00E94360940F029F45F3F29F00D
:101070000C942D0951110C9478090C9433090E9499
:10108000550968F39923B1F3552391F3951B550B3B
:10109000BB27AA2762177307840738F09F5F5F4F4B
:1010A000220F331F441FAA1FA9F335D00E2E3AF08A
:1010B000E0E832D091505040E695001CCAF72BD0A2
:1010C000FE2F29D0660F771F881FBB1F26173707F3
:1010D0004807AB07B0E809F0BB0B802DBF01FF2725
:1010E00093585F4F3AF09E3F510578F00C942D09CC
:1010F0000C9478095F3FE4F3983ED4F38695779596
:101100006795B795F7959F5FC9F7880F911D9695DD
:10111000879597F90895E1E0660F771F881FBB1F39
:10112000621773078407BA0720F0621B730B840BE6
:10113000BA0BEE1F88F7E09508950E945D0988F0CC
:101140009F5798F0B92F9927B751B0F0E1F0660F8B
:10115000771F881F991F1AF0BA95C9F714C0B130CC
:1011600091F00E947709B1E008950C947709672FF8
:10117000782F8827B85F39F0B93FCCF386957795FB
:101180006795B395D9F73EF49095809570956195E4
:101190007F4F8F4F9F4F0895E89409C097FB3EF40F
:1011A00090958095709561957F4F8F4F9F4F9923B4
:1011B000A9F0F92F96E9BB279395F6958795779532
:1011C0006795B795F111F8CFFAF4BB0F11F460FFF2
:1011D0001BC06F5F7F4F8F4F9F4F16C0882311F04A
:1011E00096E911C0772321F09EE8872F762F05C05E
:1011F000662371F096E8862F70E060E02AF09A95F9
:10120000660F771F881FDAF7880F9695879597F9ED
:101210000895990F0008550FAA0BE0E8FEEF161687
:101220001706E807F907C0F012161306E407F507DA
:1012300098F0621B730B840B950B39F40A2661F04E
:10124000232B242B252B21F408950A2609F4A140F1
:10125000A6958FEF811D811D089597F99F6780E8FE
:1012600070E060E008959FEF80EC089500240A94F8
:101270001616170618060906089500240A94121671
:101280001306140605060895092E0394000C11F4A4
:10129000882352F0BB0F40F4BF2B11F460FF04C051
:1012A0006F5F7F4F8F4F9F4F089557FD9058440FAA
:1012B000551F59F05F3F71F04795880F97FB991FB5
:1012C00061F09F3F79F08795089512161306140672
:1012D000551FF2CF4695F1DF08C0161617061806FF
:1012E000991FF1CF86957105610508940895E894DA
:1012F000BB2766277727CB0197F908950E94090934
:1013000008F48FEF08950E9496090C9444090E94F6
:10131000360938F00E943D0920F0952311F00C9415
:101320002D090C94330911240C9478090E94550955
:1013300070F3959FC1F3950F50E0551F629FF00128
:10134000729FBB27F00DB11D639FAA27F00DB11D41
:10135000AA1F649F6627B00DA11D661F829F2227CA
:10136000B00DA11D621F739FB00DA11D621F839F51
:10137000A00D611D221F749F3327A00D611D231F27
:10138000849F600D211D822F762F6A2F11249F5775
:1013900050409AF0F1F088234AF0EE0FFF1FBB1F78
:1013A000661F771F881F91505040A9F79E3F510537
:1013B00080F00C942D090C9478095F3FE4F3983E7B
:1013C000D4F3869577956795B795F795E7959F5FE1
:1013D000C1F7FE2B880F911D9695879597F9089573
:1013E0000E940909880B990B0895A1E21A2EAA1BE5
:1013F000BB1BFD010DC0AA1FBB1FEE1FFF1FA217C5
:10140000B307E407F50720F0A21BB30BE40BF50BC1
:10141000661F771F881F991F1A9469F7609570954A
:10142000809590959B01AC01BD01CF010895EE0F11
:0E143000FF1F0590F491E02D0994F894FFCF72
:10143E00000000007003D002FD02D8032E030C033F
:10144E0020030D0A006E616E00696E66006F76668F
:02145E0000008C
:00000001FF
